{
  "contractName": "Auction",
  "abi": [
    {
      "inputs": [],
      "stateMutability": "nonpayable",
      "type": "constructor"
    },
    {
      "anonymous": false,
      "inputs": [
        {
          "indexed": true,
          "internalType": "address",
          "name": "_bestBiddedCapacity",
          "type": "address"
        },
        {
          "indexed": false,
          "internalType": "uint256",
          "name": "_tradedPoolCapacity",
          "type": "uint256"
        }
      ],
      "name": "LogBid",
      "type": "event"
    },
    {
      "anonymous": false,
      "inputs": [
        {
          "indexed": true,
          "internalType": "address",
          "name": "_withdrawer",
          "type": "address"
        },
        {
          "indexed": false,
          "internalType": "uint256",
          "name": "amount",
          "type": "uint256"
        }
      ],
      "name": "LogWithdrawal",
      "type": "event"
    },
    {
      "inputs": [
        {
          "internalType": "address",
          "name": "",
          "type": "address"
        }
      ],
      "name": "bids",
      "outputs": [
        {
          "internalType": "uint256",
          "name": "",
          "type": "uint256"
        }
      ],
      "stateMutability": "view",
      "type": "function",
      "constant": true
    },
    {
      "inputs": [],
      "name": "endTime",
      "outputs": [
        {
          "internalType": "uint256",
          "name": "",
          "type": "uint256"
        }
      ],
      "stateMutability": "view",
      "type": "function",
      "constant": true
    },
    {
      "inputs": [],
      "name": "newElectricVehicle",
      "outputs": [
        {
          "internalType": "address",
          "name": "id",
          "type": "address"
        },
        {
          "internalType": "string",
          "name": "model",
          "type": "string"
        },
        {
          "internalType": "uint256",
          "name": "totalCapacity",
          "type": "uint256"
        },
        {
          "internalType": "uint256",
          "name": "committedCapacity",
          "type": "uint256"
        }
      ],
      "stateMutability": "view",
      "type": "function",
      "constant": true
    },
    {
      "inputs": [],
      "name": "startTime",
      "outputs": [
        {
          "internalType": "uint256",
          "name": "",
          "type": "uint256"
        }
      ],
      "stateMutability": "view",
      "type": "function",
      "constant": true
    },
    {
      "inputs": [],
      "name": "tradedPoolCapacity",
      "outputs": [
        {
          "internalType": "uint256",
          "name": "bidAmount",
          "type": "uint256"
        },
        {
          "internalType": "uint256",
          "name": "sellingPrice",
          "type": "uint256"
        },
        {
          "internalType": "address",
          "name": "bidders",
          "type": "address"
        }
      ],
      "stateMutability": "view",
      "type": "function",
      "constant": true
    },
    {
      "inputs": [],
      "name": "makeBid",
      "outputs": [
        {
          "internalType": "bool",
          "name": "",
          "type": "bool"
        }
      ],
      "stateMutability": "payable",
      "type": "function",
      "payable": true
    },
    {
      "inputs": [],
      "name": "withdraw",
      "outputs": [
        {
          "internalType": "bool",
          "name": "",
          "type": "bool"
        }
      ],
      "stateMutability": "nonpayable",
      "type": "function"
    },
    {
      "inputs": [],
      "name": "fetchBestBid",
      "outputs": [
        {
          "components": [
            {
              "internalType": "uint256",
              "name": "bidAmount",
              "type": "uint256"
            },
            {
              "internalType": "uint256",
              "name": "sellingPrice",
              "type": "uint256"
            },
            {
              "internalType": "address",
              "name": "bidders",
              "type": "address"
            }
          ],
          "internalType": "struct Auction.TradedPoolCapacity",
          "name": "",
          "type": "tuple"
        }
      ],
      "stateMutability": "view",
      "type": "function",
      "constant": true
    },
    {
      "inputs": [],
      "name": "getOwner",
      "outputs": [
        {
          "internalType": "address",
          "name": "",
          "type": "address"
        }
      ],
      "stateMutability": "view",
      "type": "function",
      "constant": true
    }
  ],
  "bytecode": "0x60806040523480156200001157600080fd5b50336000806101000a81548173ffffffffffffffffffffffffffffffffffffffff021916908373ffffffffffffffffffffffffffffffffffffffff1602179055504260018190555060014262000068919062000102565b6002819055506040518060400160405280600b81526020017f4e697373616e204c65616600000000000000000000000000000000000000000081525060046001019081620000b79190620003cf565b506028600460020181905550620004b6565b6000819050919050565b7f4e487b7100000000000000000000000000000000000000000000000000000000600052601160045260246000fd5b60006200010f82620000c9565b91506200011c83620000c9565b9250827fffffffffffffffffffffffffffffffffffffffffffffffffffffffffffffffff03821115620001545762000153620000d3565b5b828201905092915050565b600081519050919050565b7f4e487b7100000000000000000000000000000000000000000000000000000000600052604160045260246000fd5b7f4e487b7100000000000000000000000000000000000000000000000000000000600052602260045260246000fd5b60006002820490506001821680620001e157607f821691505b602082108103620001f757620001f662000199565b5b50919050565b60008190508160005260206000209050919050565b60006020601f8301049050919050565b600082821b905092915050565b600060088302620002617fffffffffffffffffffffffffffffffffffffffffffffffffffffffffffffffff8262000222565b6200026d868362000222565b95508019841693508086168417925050509392505050565b6000819050919050565b6000620002b0620002aa620002a484620000c9565b62000285565b620000c9565b9050919050565b6000819050919050565b620002cc836200028f565b620002e4620002db82620002b7565b8484546200022f565b825550505050565b600090565b620002fb620002ec565b62000308818484620002c1565b505050565b5b81811015620003305762000324600082620002f1565b6001810190506200030e565b5050565b601f8211156200037f576200034981620001fd565b620003548462000212565b8101602085101562000364578190505b6200037c620003738562000212565b8301826200030d565b50505b505050565b600082821c905092915050565b6000620003a46000198460080262000384565b1980831691505092915050565b6000620003bf838362000391565b9150826002028217905092915050565b620003da826200015f565b67ffffffffffffffff811115620003f657620003f56200016a565b5b620004028254620001c8565b6200040f82828562000334565b600060209050601f83116001811462000447576000841562000432578287015190505b6200043e8582620003b1565b865550620004ae565b601f1984166200045786620001fd565b60005b8281101562000481578489015182556001820191506020850194506020810190506200045a565b86831015620004a157848901516200049d601f89168262000391565b8355505b6001600288020188555050505b505050505050565b610ffd80620004c66000396000f3fe6080604052600436106100865760003560e01c806378e979251161005957806378e979251461014b5780637abd212b14610176578063818ea0da146101a1578063893d20e8146101cf578063f30e3658146101fa57610086565b80633197cbb61461008b5780633ccfd60b146100b65780633f45e56b146100e157806362ea82db1461010e575b600080fd5b34801561009757600080fd5b506100a0610218565b6040516100ad919061094c565b60405180910390f35b3480156100c257600080fd5b506100cb61021e565b6040516100d89190610982565b60405180910390f35b3480156100ed57600080fd5b506100f66104db565b604051610105939291906109de565b60405180910390f35b34801561011a57600080fd5b5061013560048036038101906101309190610a46565b610513565b604051610142919061094c565b60405180910390f35b34801561015757600080fd5b5061016061052b565b60405161016d919061094c565b60405180910390f35b34801561018257600080fd5b5061018b610531565b6040516101989190610ad3565b60405180910390f35b3480156101ad57600080fd5b506101b66105bb565b6040516101c69493929190610b87565b60405180910390f35b3480156101db57600080fd5b506101e4610681565b6040516101f19190610bd3565b60405180910390f35b6102026106aa565b60405161020f9190610982565b60405180910390f35b60025481565b6000600254421015610265576040517f08c379a000000000000000000000000000000000000000000000000000000000815260040161025c90610c3a565b60405180910390fd5b60008054906101000a900473ffffffffffffffffffffffffffffffffffffffff1673ffffffffffffffffffffffffffffffffffffffff163373ffffffffffffffffffffffffffffffffffffffff16146102f3576040517f08c379a00000000000000000000000000000000000000000000000000000000081526004016102ea90610ca6565b60405180910390fd5b60006008600001549050600060036000600860020160009054906101000a900473ffffffffffffffffffffffffffffffffffffffff1673ffffffffffffffffffffffffffffffffffffffff1673ffffffffffffffffffffffffffffffffffffffff168152602001908152602001600020819055506000600860020160006101000a81548173ffffffffffffffffffffffffffffffffffffffff021916908373ffffffffffffffffffffffffffffffffffffffff160217905550600060086000018190555060008060009054906101000a900473ffffffffffffffffffffffffffffffffffffffff1673ffffffffffffffffffffffffffffffffffffffff16826040516103fe90610cf7565b60006040518083038185875af1925050503d806000811461043b576040519150601f19603f3d011682016040523d82523d6000602084013e610440565b606091505b5050905080610484576040517f08c379a000000000000000000000000000000000000000000000000000000000815260040161047b90610d58565b60405180910390fd5b3373ffffffffffffffffffffffffffffffffffffffff167fb4214c8c54fc7442f36d3682f59aebaf09358a4431835b30efb29d52cf9e1e91836040516104ca919061094c565b60405180910390a260019250505090565b60088060000154908060010154908060020160009054906101000a900473ffffffffffffffffffffffffffffffffffffffff16905083565b60036020528060005260406000206000915090505481565b60015481565b6105396108fc565b6000600860405180606001604052908160008201548152602001600182015481526020016002820160009054906101000a900473ffffffffffffffffffffffffffffffffffffffff1673ffffffffffffffffffffffffffffffffffffffff1673ffffffffffffffffffffffffffffffffffffffff168152505090508091505090565b60048060000160009054906101000a900473ffffffffffffffffffffffffffffffffffffffff16908060010180546105f290610da7565b80601f016020809104026020016040519081016040528092919081815260200182805461061e90610da7565b801561066b5780601f106106405761010080835404028352916020019161066b565b820191906000526020600020905b81548152906001019060200180831161064e57829003601f168201915b5050505050908060020154908060030154905084565b60008060009054906101000a900473ffffffffffffffffffffffffffffffffffffffff16905090565b600060025442106106f0576040517f08c379a00000000000000000000000000000000000000000000000000000000081526004016106e790610e24565b60405180910390fd5b60008054906101000a900473ffffffffffffffffffffffffffffffffffffffff1673ffffffffffffffffffffffffffffffffffffffff163373ffffffffffffffffffffffffffffffffffffffff160361077e576040517f08c379a000000000000000000000000000000000000000000000000000000000815260040161077590610eb6565b60405180910390fd5b600034600360003373ffffffffffffffffffffffffffffffffffffffff1673ffffffffffffffffffffffffffffffffffffffff168152602001908152602001600020546107cb9190610f05565b90506008600001548111610814576040517f08c379a000000000000000000000000000000000000000000000000000000000815260040161080b90610fa7565b60405180910390fd5b33600860020160006101000a81548173ffffffffffffffffffffffffffffffffffffffff021916908373ffffffffffffffffffffffffffffffffffffffff1602179055508060086000018190555080600360003373ffffffffffffffffffffffffffffffffffffffff1673ffffffffffffffffffffffffffffffffffffffff168152602001908152602001600020819055503373ffffffffffffffffffffffffffffffffffffffff167f5331b3a4532c2507900f549683f076c051f92222c177b52f82f140d8667d3ebf826040516108ec919061094c565b60405180910390a2600191505090565b60405180606001604052806000815260200160008152602001600073ffffffffffffffffffffffffffffffffffffffff1681525090565b6000819050919050565b61094681610933565b82525050565b6000602082019050610961600083018461093d565b92915050565b60008115159050919050565b61097c81610967565b82525050565b60006020820190506109976000830184610973565b92915050565b600073ffffffffffffffffffffffffffffffffffffffff82169050919050565b60006109c88261099d565b9050919050565b6109d8816109bd565b82525050565b60006060820190506109f3600083018661093d565b610a00602083018561093d565b610a0d60408301846109cf565b949350505050565b600080fd5b610a23816109bd565b8114610a2e57600080fd5b50565b600081359050610a4081610a1a565b92915050565b600060208284031215610a5c57610a5b610a15565b5b6000610a6a84828501610a31565b91505092915050565b610a7c81610933565b82525050565b610a8b816109bd565b82525050565b606082016000820151610aa76000850182610a73565b506020820151610aba6020850182610a73565b506040820151610acd6040850182610a82565b50505050565b6000606082019050610ae86000830184610a91565b92915050565b600081519050919050565b600082825260208201905092915050565b60005b83811015610b28578082015181840152602081019050610b0d565b83811115610b37576000848401525b50505050565b6000601f19601f8301169050919050565b6000610b5982610aee565b610b638185610af9565b9350610b73818560208601610b0a565b610b7c81610b3d565b840191505092915050565b6000608082019050610b9c60008301876109cf565b8181036020830152610bae8186610b4e565b9050610bbd604083018561093d565b610bca606083018461093d565b95945050505050565b6000602082019050610be860008301846109cf565b92915050565b7f546869732061756374696f6e206973207374696c6c206f70656e2e0000000000600082015250565b6000610c24601b83610af9565b9150610c2f82610bee565b602082019050919050565b60006020820190508181036000830152610c5381610c17565b9050919050565b7f4f6e6c79206f776e65722063616e20706572666f726d207461736b2e00000000600082015250565b6000610c90601c83610af9565b9150610c9b82610c5a565b602082019050919050565b60006020820190508181036000830152610cbf81610c83565b9050919050565b600081905092915050565b50565b6000610ce1600083610cc6565b9150610cec82610cd1565b600082019050919050565b6000610d0282610cd4565b9150819050919050565b7f5769746864726177616c206661696c65642e0000000000000000000000000000600082015250565b6000610d42601283610af9565b9150610d4d82610d0c565b602082019050919050565b60006020820190508181036000830152610d7181610d35565b9050919050565b7f4e487b7100000000000000000000000000000000000000000000000000000000600052602260045260246000fd5b60006002820490506001821680610dbf57607f821691505b602082108103610dd257610dd1610d78565b5b50919050565b7f546869732061756374696f6e20697320636c6f7365642e000000000000000000600082015250565b6000610e0e601783610af9565b9150610e1982610dd8565b602082019050919050565b60006020820190508181036000830152610e3d81610e01565b9050919050565b7f4f776e6572206973206e6f7420616c6c6f77656420746f20636f6d6d6974206360008201527f6170616369747900000000000000000000000000000000000000000000000000602082015250565b6000610ea0602783610af9565b9150610eab82610e44565b604082019050919050565b60006020820190508181036000830152610ecf81610e93565b9050919050565b7f4e487b7100000000000000000000000000000000000000000000000000000000600052601160045260246000fd5b6000610f1082610933565b9150610f1b83610933565b9250827fffffffffffffffffffffffffffffffffffffffffffffffffffffffffffffffff03821115610f5057610f4f610ed6565b5b828201905092915050565b7f426964206572726f723a20506f6f6c206d6f7265206361706163697479000000600082015250565b6000610f91601d83610af9565b9150610f9c82610f5b565b602082019050919050565b60006020820190508181036000830152610fc081610f84565b905091905056fea264697066735822122024e830edf11e99241de3b427b45edafb42620b5e57a6624c8956fb2e963340e864736f6c634300080f0033",
  "immutableReferences": {},
  "source": "pragma solidity ^0.8.0;\n\ncontract Auction {\n    // Properties\n    address private owner;\n    uint256 public startTime;\n    uint256 public endTime;\n    mapping(address => uint256) public bids;\n\n    struct ElectricVehicle { // Electric Vehicle\n        address id;\n        string model;\n        uint256 totalCapacity;\n        uint256 committedCapacity;  // get from app\n    }\n\n    struct TradedPoolCapacity {\n        uint256 bidAmount;\n        uint256 sellingPrice;\n        address bidders; // traded pol capacity needs to be bid\n    }\n\n    ElectricVehicle public newElectricVehicle;\n    TradedPoolCapacity public tradedPoolCapacity;\n\n    // modifiers\n    // Modifiers\n    modifier isOngoing() {\n        require(block.timestamp < endTime, 'This auction is closed.');\n        _;\n    }\n    modifier notOngoing() {\n        require(block.timestamp >= endTime, 'This auction is still open.');\n        _;\n    }\n    modifier isOwner() {\n        require(msg.sender == owner, 'Only owner can perform task.');\n        _;\n    }\n    modifier notOwner() {\n        require(msg.sender != owner, 'Owner is not allowed to commit capacity');\n        _;\n    }\n    // Events\n    event LogBid(address indexed _bestBiddedCapacity, uint256 _tradedPoolCapacity);\n    event LogWithdrawal(address indexed _withdrawer, uint256 amount);\n\n    // Assign values to some properties during deployment\n    constructor () {\n        owner = msg.sender;\n        startTime = block.timestamp;\n        endTime = block.timestamp + 1; // 12 hours based on finished time of charging\n        newElectricVehicle.model = 'Nissan Leaf';\n        newElectricVehicle.totalCapacity = 40;\n    }\n\n    // make bid based on the traded pool capacity\n    function makeBid() public payable isOngoing() notOwner() returns (bool) {\n        uint256 bidAmount = bids[msg.sender] + msg.value;\n        require(bidAmount > tradedPoolCapacity.bidAmount, 'Bid error: Pool more capacity');\n\n        tradedPoolCapacity.bidders = msg.sender;\n        tradedPoolCapacity.bidAmount = bidAmount;\n        bids[msg.sender] = bidAmount;\n        emit LogBid(msg.sender, bidAmount);\n        return true;\n    }\n\n    function withdraw() public notOngoing() isOwner() returns (bool) {\n        uint256 amount = tradedPoolCapacity.bidAmount;\n        bids[tradedPoolCapacity.bidders] = 0;\n        tradedPoolCapacity.bidders = address(0);\n        tradedPoolCapacity.bidAmount = 0;\n\n        (bool success, ) = payable(owner).call{ value: amount }(\"\");\n        require(success, 'Withdrawal failed.');\n        emit LogWithdrawal(msg.sender, amount);\n        return true;\n    }\n\n    function fetchBestBid() public view returns (TradedPoolCapacity memory) {\n        TradedPoolCapacity memory _tradedPoolCapacity = tradedPoolCapacity;\n        return _tradedPoolCapacity;\n    }\n\n    function getOwner() public view returns (address) {\n        return owner;\n    }\n}\n",
  "sourcePath": "/Users/clarissaanjani/Entrix/client/contracts/Auction.sol",
  "compiler": {
    "name": "solc",
    "version": "0.8.15+commit.e14f2714.Emscripten.clang"
  },
  "schemaVersion": "3.4.8",
  "updatedAt": "2022-08-07T21:51:03.602Z",
  "networkType": "ethereum",
  "devdoc": {
    "kind": "dev",
    "methods": {},
    "version": 1
  },
  "userdoc": {
    "kind": "user",
    "methods": {},
    "version": 1
  }
}