{
  "contractName": "Auction",
  "abi": [
    {
      "inputs": [],
      "stateMutability": "nonpayable",
      "type": "constructor"
    },
    {
      "anonymous": false,
      "inputs": [
        {
          "indexed": true,
          "internalType": "address",
          "name": "_highestBidder",
          "type": "address"
        },
        {
          "indexed": false,
          "internalType": "uint256",
          "name": "_highestBid",
          "type": "uint256"
        }
      ],
      "name": "LogBid",
      "type": "event"
    },
    {
      "anonymous": false,
      "inputs": [
        {
          "indexed": true,
          "internalType": "address",
          "name": "_withdrawer",
          "type": "address"
        },
        {
          "indexed": false,
          "internalType": "uint256",
          "name": "amount",
          "type": "uint256"
        }
      ],
      "name": "LogWithdrawal",
      "type": "event"
    },
    {
      "inputs": [
        {
          "internalType": "address",
          "name": "",
          "type": "address"
        }
      ],
      "name": "bids",
      "outputs": [
        {
          "internalType": "uint256",
          "name": "",
          "type": "uint256"
        }
      ],
      "stateMutability": "view",
      "type": "function",
      "constant": true
    },
    {
      "inputs": [],
      "name": "endTime",
      "outputs": [
        {
          "internalType": "uint256",
          "name": "",
          "type": "uint256"
        }
      ],
      "stateMutability": "view",
      "type": "function",
      "constant": true
    },
    {
      "inputs": [],
      "name": "highestBid",
      "outputs": [
        {
          "internalType": "uint256",
          "name": "bidAmount",
          "type": "uint256"
        },
        {
          "internalType": "address",
          "name": "bidder",
          "type": "address"
        }
      ],
      "stateMutability": "view",
      "type": "function",
      "constant": true
    },
    {
      "inputs": [],
      "name": "newHouse",
      "outputs": [
        {
          "internalType": "string",
          "name": "houseType",
          "type": "string"
        },
        {
          "internalType": "string",
          "name": "houseColor",
          "type": "string"
        },
        {
          "internalType": "string",
          "name": "houseLocation",
          "type": "string"
        }
      ],
      "stateMutability": "view",
      "type": "function",
      "constant": true
    },
    {
      "inputs": [],
      "name": "startTime",
      "outputs": [
        {
          "internalType": "uint256",
          "name": "",
          "type": "uint256"
        }
      ],
      "stateMutability": "view",
      "type": "function",
      "constant": true
    },
    {
      "inputs": [],
      "name": "makeBid",
      "outputs": [
        {
          "internalType": "bool",
          "name": "",
          "type": "bool"
        }
      ],
      "stateMutability": "payable",
      "type": "function",
      "payable": true
    },
    {
      "inputs": [],
      "name": "fetchHighestBid",
      "outputs": [
        {
          "components": [
            {
              "internalType": "uint256",
              "name": "bidAmount",
              "type": "uint256"
            },
            {
              "internalType": "address",
              "name": "bidder",
              "type": "address"
            }
          ],
          "internalType": "struct Auction.HighestBid",
          "name": "",
          "type": "tuple"
        }
      ],
      "stateMutability": "view",
      "type": "function",
      "constant": true
    },
    {
      "inputs": [],
      "name": "getOwner",
      "outputs": [
        {
          "internalType": "address",
          "name": "",
          "type": "address"
        }
      ],
      "stateMutability": "view",
      "type": "function",
      "constant": true
    }
  ],
  "bytecode": "0x60806040523480156200001157600080fd5b50336000806101000a81548173ffffffffffffffffffffffffffffffffffffffff021916908373ffffffffffffffffffffffffffffffffffffffff16021790555042600181905550610e104262000069919062000218565b6002819055506040518060400160405280600781526020017f234646464646460000000000000000000000000000000000000000000000000081525060046001019080519060200190620000bf92919062000168565b506040518060400160405280600881526020017f5361736b2c20534b000000000000000000000000000000000000000000000000815250600460020190805190602001906200011092919062000168565b506040518060400160405280600981526020017f546f776e686f7573650000000000000000000000000000000000000000000000815250600460000190805190602001906200016192919062000168565b5062000313565b82805462000176906200027f565b90600052602060002090601f0160209004810192826200019a5760008555620001e6565b82601f10620001b557805160ff1916838001178555620001e6565b82800160010185558215620001e6579182015b82811115620001e5578251825591602001919060010190620001c8565b5b509050620001f59190620001f9565b5090565b5b8082111562000214576000816000905550600101620001fa565b5090565b6000620002258262000275565b9150620002328362000275565b9250827fffffffffffffffffffffffffffffffffffffffffffffffffffffffffffffffff038211156200026a5762000269620002b5565b5b828201905092915050565b6000819050919050565b600060028204905060018216806200029857607f821691505b60208210811415620002af57620002ae620002e4565b5b50919050565b7f4e487b7100000000000000000000000000000000000000000000000000000000600052601160045260246000fd5b7f4e487b7100000000000000000000000000000000000000000000000000000000600052602260045260246000fd5b610c0380620003236000396000f3fe60806040526004361061007b5760003560e01c8063d57bde791161004e578063d57bde791461013e578063f30e36581461016a578063f373c46314610188578063fa481f86146101b35761007b565b80633197cbb61461008057806362ea82db146100ab57806378e97925146100e8578063893d20e814610113575b600080fd5b34801561008c57600080fd5b506100956101e0565b6040516100a29190610969565b60405180910390f35b3480156100b757600080fd5b506100d260048036038101906100cd9190610727565b6101e6565b6040516100df9190610969565b60405180910390f35b3480156100f457600080fd5b506100fd6101fe565b60405161010a9190610969565b60405180910390f35b34801561011f57600080fd5b50610128610204565b604051610135919061086c565b60405180910390f35b34801561014a57600080fd5b5061015361022d565b604051610161929190610984565b60405180910390f35b61017261025f565b60405161017f9190610887565b60405180910390f35b34801561019457600080fd5b5061019d6104b2565b6040516101aa919061094e565b60405180910390f35b3480156101bf57600080fd5b506101c8610532565b6040516101d7939291906108a2565b60405180910390f35b60025481565b60036020528060005260406000206000915090505481565b60015481565b60008060009054906101000a900473ffffffffffffffffffffffffffffffffffffffff16905090565b60078060000154908060010160009054906101000a900473ffffffffffffffffffffffffffffffffffffffff16905082565b600060025442106102a5576040517f08c379a000000000000000000000000000000000000000000000000000000000815260040161029c9061090e565b60405180910390fd5b60008054906101000a900473ffffffffffffffffffffffffffffffffffffffff1673ffffffffffffffffffffffffffffffffffffffff163373ffffffffffffffffffffffffffffffffffffffff161415610334576040517f08c379a000000000000000000000000000000000000000000000000000000000815260040161032b906108ee565b60405180910390fd5b600034600360003373ffffffffffffffffffffffffffffffffffffffff1673ffffffffffffffffffffffffffffffffffffffff1681526020019081526020016000205461038191906109c9565b905060076000015481116103ca576040517f08c379a00000000000000000000000000000000000000000000000000000000081526004016103c19061092e565b60405180910390fd5b33600760010160006101000a81548173ffffffffffffffffffffffffffffffffffffffff021916908373ffffffffffffffffffffffffffffffffffffffff1602179055508060076000018190555080600360003373ffffffffffffffffffffffffffffffffffffffff1673ffffffffffffffffffffffffffffffffffffffff168152602001908152602001600020819055503373ffffffffffffffffffffffffffffffffffffffff167f5331b3a4532c2507900f549683f076c051f92222c177b52f82f140d8667d3ebf826040516104a29190610969565b60405180910390a2600191505090565b6104ba6106e2565b60006007604051806040016040529081600082015481526020016001820160009054906101000a900473ffffffffffffffffffffffffffffffffffffffff1673ffffffffffffffffffffffffffffffffffffffff1673ffffffffffffffffffffffffffffffffffffffff168152505090508091505090565b600480600001805461054390610a9a565b80601f016020809104026020016040519081016040528092919081815260200182805461056f90610a9a565b80156105bc5780601f10610591576101008083540402835291602001916105bc565b820191906000526020600020905b81548152906001019060200180831161059f57829003601f168201915b5050505050908060010180546105d190610a9a565b80601f01602080910402602001604051908101604052809291908181526020018280546105fd90610a9a565b801561064a5780601f1061061f5761010080835404028352916020019161064a565b820191906000526020600020905b81548152906001019060200180831161062d57829003601f168201915b50505050509080600201805461065f90610a9a565b80601f016020809104026020016040519081016040528092919081815260200182805461068b90610a9a565b80156106d85780601f106106ad576101008083540402835291602001916106d8565b820191906000526020600020905b8154815290600101906020018083116106bb57829003601f168201915b5050505050905083565b604051806040016040528060008152602001600073ffffffffffffffffffffffffffffffffffffffff1681525090565b60008135905061072181610bb6565b92915050565b60006020828403121561073957600080fd5b600061074784828501610712565b91505092915050565b61075981610a1f565b82525050565b61076881610a1f565b82525050565b61077781610a31565b82525050565b6000610788826109ad565b61079281856109b8565b93506107a2818560208601610a67565b6107ab81610b2a565b840191505092915050565b60006107c3601c836109b8565b91506107ce82610b3b565b602082019050919050565b60006107e66017836109b8565b91506107f182610b64565b602082019050919050565b6000610809601d836109b8565b915061081482610b8d565b602082019050919050565b604082016000820151610835600085018261084e565b5060208201516108486020850182610750565b50505050565b61085781610a5d565b82525050565b61086681610a5d565b82525050565b6000602082019050610881600083018461075f565b92915050565b600060208201905061089c600083018461076e565b92915050565b600060608201905081810360008301526108bc818661077d565b905081810360208301526108d0818561077d565b905081810360408301526108e4818461077d565b9050949350505050565b60006020820190508181036000830152610907816107b6565b9050919050565b60006020820190508181036000830152610927816107d9565b9050919050565b60006020820190508181036000830152610947816107fc565b9050919050565b6000604082019050610963600083018461081f565b92915050565b600060208201905061097e600083018461085d565b92915050565b6000604082019050610999600083018561085d565b6109a6602083018461075f565b9392505050565b600081519050919050565b600082825260208201905092915050565b60006109d482610a5d565b91506109df83610a5d565b9250827fffffffffffffffffffffffffffffffffffffffffffffffffffffffffffffffff03821115610a1457610a13610acc565b5b828201905092915050565b6000610a2a82610a3d565b9050919050565b60008115159050919050565b600073ffffffffffffffffffffffffffffffffffffffff82169050919050565b6000819050919050565b60005b83811015610a85578082015181840152602081019050610a6a565b83811115610a94576000848401525b50505050565b60006002820490506001821680610ab257607f821691505b60208210811415610ac657610ac5610afb565b5b50919050565b7f4e487b7100000000000000000000000000000000000000000000000000000000600052601160045260246000fd5b7f4e487b7100000000000000000000000000000000000000000000000000000000600052602260045260246000fd5b6000601f19601f8301169050919050565b7f4f776e6572206973206e6f7420616c6c6f77656420746f206269642e00000000600082015250565b7f546869732061756374696f6e20697320636c6f7365642e000000000000000000600082015250565b7f426964206572726f723a204d616b65206120686967686572204269642e000000600082015250565b610bbf81610a1f565b8114610bca57600080fd5b5056fea2646970667358221220828992acf08f3701c8a2260a9ff4f98a5632cb95f543fb656d64104b9232e2cf64736f6c63430008040033",
  "immutableReferences": {},
  "source": "pragma solidity 0.8.4;\n\ncontract Auction {\n    // Modifiers\n    modifier isOngoing() {\n        require(block.timestamp < endTime, 'This auction is closed.');\n        _;\n    }\n    modifier notOngoing() {\n        require(block.timestamp >= endTime, 'This auction is still open.');\n        _;\n    }\n    modifier isOwner() {\n        require(msg.sender == owner, 'Only owner can perform task.');\n        _;\n    }\n    modifier notOwner() {\n        require(msg.sender != owner, 'Owner is not allowed to bid.');\n        _;\n    }\n    // Properties\n    address private owner;\n    uint256 public startTime;\n    uint256 public endTime;\n    mapping(address => uint256) public bids;\n\n    struct House {\n        string houseType;\n        string houseColor;\n        string houseLocation;\n    }\n\n    struct HighestBid {\n        uint256 bidAmount;\n        address bidder;\n    }\n\n    House public newHouse;\n    HighestBid public highestBid;\n\n    // Events\n    event LogBid(address indexed _highestBidder, uint256 _highestBid);\n    event LogWithdrawal(address indexed _withdrawer, uint256 amount);\n\n    // Assign values to some properties during deployment\n    constructor () {\n        owner = msg.sender;\n        startTime = block.timestamp;\n        endTime = block.timestamp + 1 hours;\n        newHouse.houseColor = '#FFFFFF';\n        newHouse.houseLocation = 'Sask, SK';\n        newHouse.houseType = 'Townhouse';\n    }\n\n    function makeBid() public payable isOngoing() notOwner() returns (bool) {\n        uint256 bidAmount = bids[msg.sender] + msg.value;\n        require(bidAmount > highestBid.bidAmount, 'Bid error: Make a higher Bid.');\n\n        highestBid.bidder = msg.sender;\n        highestBid.bidAmount = bidAmount;\n        bids[msg.sender] = bidAmount;\n        emit LogBid(msg.sender, bidAmount);\n        return true;\n    }\n\n/*    function withdraw() public notOngoing() isOwner() returns (bool) {\n        uint256 amount = highestBid.bidAmount;\n        bids[highestBid.bidder] = 0;\n        highestBid.bidder = address(0);\n        highestBid.bidAmount = 0;\n\n        (bool success, ) = payable(owner).call{ value: amount }(\"\");\n        require(success, 'Withdrawal failed.');\n        emit LogWithdrawal(msg.sender, amount);\n        return true;\n    }*/\n\n    function fetchHighestBid() public view returns (HighestBid memory) {\n        HighestBid memory _highestBid = highestBid;\n        return _highestBid;\n    }\n\n    function getOwner() public view returns (address) {\n        return owner;\n    }\n}\n",
  "sourcePath": "/Users/clarissaanjani/Entrix/contracts/Auction.sol",
  "compiler": {
    "name": "solc",
    "version": "0.8.4+commit.c7e474f2.Emscripten.clang"
  },
  "schemaVersion": "3.3.3",
  "updatedAt": "2022-07-14T17:17:55.350Z",
  "networkType": "ethereum",
  "devdoc": {
    "kind": "dev",
    "methods": {},
    "version": 1
  },
  "userdoc": {
    "kind": "user",
    "methods": {},
    "version": 1
  }
}